{
  "_format": "hh-sol-artifact-1",
  "contractName": "DroidNft",
  "sourceName": "contracts/DroidNft.sol",
  "abi": [
    {
      "inputs": [],
      "stateMutability": "nonpayable",
      "type": "constructor"
    },
    {
      "anonymous": false,
      "inputs": [
        {
          "indexed": true,
          "internalType": "address",
          "name": "owner",
          "type": "address"
        },
        {
          "indexed": true,
          "internalType": "address",
          "name": "approved",
          "type": "address"
        },
        {
          "indexed": true,
          "internalType": "uint256",
          "name": "tokenId",
          "type": "uint256"
        }
      ],
      "name": "Approval",
      "type": "event"
    },
    {
      "anonymous": false,
      "inputs": [
        {
          "indexed": true,
          "internalType": "address",
          "name": "owner",
          "type": "address"
        },
        {
          "indexed": true,
          "internalType": "address",
          "name": "operator",
          "type": "address"
        },
        {
          "indexed": false,
          "internalType": "bool",
          "name": "approved",
          "type": "bool"
        }
      ],
      "name": "ApprovalForAll",
      "type": "event"
    },
    {
      "anonymous": false,
      "inputs": [
        {
          "indexed": false,
          "internalType": "address",
          "name": "sender",
          "type": "address"
        },
        {
          "indexed": false,
          "internalType": "uint256",
          "name": "tokenId",
          "type": "uint256"
        }
      ],
      "name": "NewDroidNftMinted",
      "type": "event"
    },
    {
      "anonymous": false,
      "inputs": [
        {
          "indexed": true,
          "internalType": "address",
          "name": "from",
          "type": "address"
        },
        {
          "indexed": true,
          "internalType": "address",
          "name": "to",
          "type": "address"
        },
        {
          "indexed": true,
          "internalType": "uint256",
          "name": "tokenId",
          "type": "uint256"
        }
      ],
      "name": "Transfer",
      "type": "event"
    },
    {
      "inputs": [
        {
          "internalType": "address",
          "name": "to",
          "type": "address"
        },
        {
          "internalType": "uint256",
          "name": "tokenId",
          "type": "uint256"
        }
      ],
      "name": "approve",
      "outputs": [],
      "stateMutability": "nonpayable",
      "type": "function"
    },
    {
      "inputs": [
        {
          "internalType": "address",
          "name": "owner",
          "type": "address"
        }
      ],
      "name": "balanceOf",
      "outputs": [
        {
          "internalType": "uint256",
          "name": "",
          "type": "uint256"
        }
      ],
      "stateMutability": "view",
      "type": "function"
    },
    {
      "inputs": [
        {
          "internalType": "uint256",
          "name": "tokenId",
          "type": "uint256"
        }
      ],
      "name": "getApproved",
      "outputs": [
        {
          "internalType": "address",
          "name": "",
          "type": "address"
        }
      ],
      "stateMutability": "view",
      "type": "function"
    },
    {
      "inputs": [
        {
          "internalType": "address",
          "name": "owner",
          "type": "address"
        },
        {
          "internalType": "address",
          "name": "operator",
          "type": "address"
        }
      ],
      "name": "isApprovedForAll",
      "outputs": [
        {
          "internalType": "bool",
          "name": "",
          "type": "bool"
        }
      ],
      "stateMutability": "view",
      "type": "function"
    },
    {
      "inputs": [],
      "name": "makeADroidNft",
      "outputs": [],
      "stateMutability": "nonpayable",
      "type": "function"
    },
    {
      "inputs": [],
      "name": "name",
      "outputs": [
        {
          "internalType": "string",
          "name": "",
          "type": "string"
        }
      ],
      "stateMutability": "view",
      "type": "function"
    },
    {
      "inputs": [
        {
          "internalType": "uint256",
          "name": "tokenId",
          "type": "uint256"
        }
      ],
      "name": "ownerOf",
      "outputs": [
        {
          "internalType": "address",
          "name": "",
          "type": "address"
        }
      ],
      "stateMutability": "view",
      "type": "function"
    },
    {
      "inputs": [
        {
          "internalType": "uint256",
          "name": "tokenId",
          "type": "uint256"
        }
      ],
      "name": "pickRandomFirstWord",
      "outputs": [
        {
          "internalType": "string",
          "name": "",
          "type": "string"
        }
      ],
      "stateMutability": "view",
      "type": "function"
    },
    {
      "inputs": [
        {
          "internalType": "uint256",
          "name": "tokenId",
          "type": "uint256"
        }
      ],
      "name": "pickRandomSecondWord",
      "outputs": [
        {
          "internalType": "string",
          "name": "",
          "type": "string"
        }
      ],
      "stateMutability": "view",
      "type": "function"
    },
    {
      "inputs": [
        {
          "internalType": "uint256",
          "name": "tokenId",
          "type": "uint256"
        }
      ],
      "name": "pickRandomThirdWord",
      "outputs": [
        {
          "internalType": "string",
          "name": "",
          "type": "string"
        }
      ],
      "stateMutability": "view",
      "type": "function"
    },
    {
      "inputs": [
        {
          "internalType": "address",
          "name": "from",
          "type": "address"
        },
        {
          "internalType": "address",
          "name": "to",
          "type": "address"
        },
        {
          "internalType": "uint256",
          "name": "tokenId",
          "type": "uint256"
        }
      ],
      "name": "safeTransferFrom",
      "outputs": [],
      "stateMutability": "nonpayable",
      "type": "function"
    },
    {
      "inputs": [
        {
          "internalType": "address",
          "name": "from",
          "type": "address"
        },
        {
          "internalType": "address",
          "name": "to",
          "type": "address"
        },
        {
          "internalType": "uint256",
          "name": "tokenId",
          "type": "uint256"
        },
        {
          "internalType": "bytes",
          "name": "_data",
          "type": "bytes"
        }
      ],
      "name": "safeTransferFrom",
      "outputs": [],
      "stateMutability": "nonpayable",
      "type": "function"
    },
    {
      "inputs": [
        {
          "internalType": "address",
          "name": "operator",
          "type": "address"
        },
        {
          "internalType": "bool",
          "name": "approved",
          "type": "bool"
        }
      ],
      "name": "setApprovalForAll",
      "outputs": [],
      "stateMutability": "nonpayable",
      "type": "function"
    },
    {
      "inputs": [
        {
          "internalType": "bytes4",
          "name": "interfaceId",
          "type": "bytes4"
        }
      ],
      "name": "supportsInterface",
      "outputs": [
        {
          "internalType": "bool",
          "name": "",
          "type": "bool"
        }
      ],
      "stateMutability": "view",
      "type": "function"
    },
    {
      "inputs": [],
      "name": "symbol",
      "outputs": [
        {
          "internalType": "string",
          "name": "",
          "type": "string"
        }
      ],
      "stateMutability": "view",
      "type": "function"
    },
    {
      "inputs": [
        {
          "internalType": "uint256",
          "name": "tokenId",
          "type": "uint256"
        }
      ],
      "name": "tokenURI",
      "outputs": [
        {
          "internalType": "string",
          "name": "",
          "type": "string"
        }
      ],
      "stateMutability": "view",
      "type": "function"
    },
    {
      "inputs": [
        {
          "internalType": "address",
          "name": "from",
          "type": "address"
        },
        {
          "internalType": "address",
          "name": "to",
          "type": "address"
        },
        {
          "internalType": "uint256",
          "name": "tokenId",
          "type": "uint256"
        }
      ],
      "name": "transferFrom",
      "outputs": [],
      "stateMutability": "nonpayable",
      "type": "function"
    }
  ],
  "bytecode": "0x608060405260405180610160016040528061012f8152602001620040ed61012f913960089080519060200190620000389291906200044f565b5060405180606001604052806040518060400160405280600481526020017f424c41480000000000000000000000000000000000000000000000000000000081525081526020016040518060400160405280600481526020017f424c41480000000000000000000000000000000000000000000000000000000081525081526020016040518060400160405280600481526020017f424c414800000000000000000000000000000000000000000000000000000000815250815250600990600362000105929190620004e0565b5060405180606001604052806040518060400160405280600481526020017f424c41480000000000000000000000000000000000000000000000000000000081525081526020016040518060400160405280600481526020017f424c41480000000000000000000000000000000000000000000000000000000081525081526020016040518060400160405280600481526020017f424c414800000000000000000000000000000000000000000000000000000000815250815250600a906003620001d2929190620004e0565b5060405180606001604052806040518060400160405280600481526020017f424c41480000000000000000000000000000000000000000000000000000000081525081526020016040518060400160405280600481526020017f424c41480000000000000000000000000000000000000000000000000000000081525081526020016040518060400160405280600481526020017f424c414800000000000000000000000000000000000000000000000000000000815250815250600b9060036200029f929190620004e0565b50348015620002ad57600080fd5b506040518060400160405280600a81526020017f534952414b55534e4654000000000000000000000000000000000000000000008152506040518060400160405280600581526020017f534952414b0000000000000000000000000000000000000000000000000000008152508160009080519060200190620003329291906200044f565b5080600190805190602001906200034b9291906200044f565b5050506200037d6040518060600160405280602181526020016200421c602191396200038360201b620010be1760201c565b62000701565b62000423816040516024016200039a919062000615565b6040516020818303038152906040527f41304fac000000000000000000000000000000000000000000000000000000007bffffffffffffffffffffffffffffffffffffffffffffffffffffffff19166020820180517bffffffffffffffffffffffffffffffffffffffffffffffffffffffff83818316178352505050506200042660201b60201c565b50565b60008151905060006a636f6e736f6c652e6c6f679050602083016000808483855afa5050505050565b8280546200045d906200068b565b90600052602060002090601f016020900481019282620004815760008555620004cd565b82601f106200049c57805160ff1916838001178555620004cd565b82800160010185558215620004cd579182015b82811115620004cc578251825591602001919060010190620004af565b5b509050620004dc919062000547565b5090565b82805482825590600052602060002090810192821562000534579160200282015b8281111562000533578251829080519060200190620005229291906200044f565b509160200191906001019062000501565b5b50905062000543919062000566565b5090565b5b808211156200056257600081600090555060010162000548565b5090565b5b808211156200058a57600081816200058091906200058e565b5060010162000567565b5090565b5080546200059c906200068b565b6000825580601f10620005b05750620005d1565b601f016020900490600052602060002090810190620005d0919062000547565b5b50565b6000620005e18262000639565b620005ed818562000644565b9350620005ff81856020860162000655565b6200060a81620006f0565b840191505092915050565b60006020820190508181036000830152620006318184620005d4565b905092915050565b600081519050919050565b600082825260208201905092915050565b60005b838110156200067557808201518184015260208101905062000658565b8381111562000685576000848401525b50505050565b60006002820490506001821680620006a457607f821691505b60208210811415620006bb57620006ba620006c1565b5b50919050565b7f4e487b7100000000000000000000000000000000000000000000000000000000600052602260045260246000fd5b6000601f19601f8301169050919050565b6139dc80620007116000396000f3fe608060405234801561001057600080fd5b506004361061010b5760003560e01c80636352211e116100a2578063b187301f11610071578063b187301f146102b6578063b88d4fde146102e6578063c575757a14610302578063c87b56dd14610332578063e985e9c5146103625761010b565b80636352211e1461021c57806370a082311461024c57806395d89b411461027c578063a22cb4651461029a5761010b565b806323b872dd116100de57806323b872dd146101aa5780632de38d68146101c65780632e51cd95146101f657806342842e0e146102005761010b565b806301ffc9a71461011057806306fdde0314610140578063081812fc1461015e578063095ea7b31461018e575b600080fd5b61012a600480360381019061012591906124ea565b610392565b6040516101379190612bf4565b60405180910390f35b610148610474565b6040516101559190612c0f565b60405180910390f35b6101786004803603810190610173919061253c565b610506565b6040516101859190612b64565b60405180910390f35b6101a860048036038101906101a391906124ae565b61058b565b005b6101c460048036038101906101bf91906123a8565b6106a3565b005b6101e060048036038101906101db919061253c565b610703565b6040516101ed9190612c0f565b60405180910390f35b6101fe610821565b005b61021a600480360381019061021591906123a8565b610a08565b005b6102366004803603810190610231919061253c565b610a28565b6040516102439190612b64565b60405180910390f35b61026660048036038101906102619190612343565b610ada565b6040516102739190612e6f565b60405180910390f35b610284610b92565b6040516102919190612c0f565b60405180910390f35b6102b460048036038101906102af9190612472565b610c24565b005b6102d060048036038101906102cb919061253c565b610c3a565b6040516102dd9190612c0f565b60405180910390f35b61030060048036038101906102fb91906123f7565b610d58565b005b61031c6004803603810190610317919061253c565b610dba565b6040516103299190612c0f565b60405180910390f35b61034c6004803603810190610347919061253c565b610ed8565b6040516103599190612c0f565b60405180910390f35b61037c6004803603810190610377919061236c565b61102a565b6040516103899190612bf4565b60405180910390f35b60007f80ac58cd000000000000000000000000000000000000000000000000000000007bffffffffffffffffffffffffffffffffffffffffffffffffffffffff1916827bffffffffffffffffffffffffffffffffffffffffffffffffffffffff1916148061045d57507f5b5e139f000000000000000000000000000000000000000000000000000000007bffffffffffffffffffffffffffffffffffffffffffffffffffffffff1916827bffffffffffffffffffffffffffffffffffffffffffffffffffffffff1916145b8061046d575061046c82611157565b5b9050919050565b60606000805461048390613103565b80601f01602080910402602001604051908101604052809291908181526020018280546104af90613103565b80156104fc5780601f106104d1576101008083540402835291602001916104fc565b820191906000526020600020905b8154815290600101906020018083116104df57829003601f168201915b5050505050905090565b6000610511826111c1565b610550576040517f08c379a000000000000000000000000000000000000000000000000000000000815260040161054790612def565b60405180910390fd5b6004600083815260200190815260200160002060009054906101000a900473ffffffffffffffffffffffffffffffffffffffff169050919050565b600061059682610a28565b90508073ffffffffffffffffffffffffffffffffffffffff168373ffffffffffffffffffffffffffffffffffffffff161415610607576040517f08c379a00000000000000000000000000000000000000000000000000000000081526004016105fe90612e2f565b60405180910390fd5b8073ffffffffffffffffffffffffffffffffffffffff1661062661122d565b73ffffffffffffffffffffffffffffffffffffffff16148061065557506106548161064f61122d565b61102a565b5b610694576040517f08c379a000000000000000000000000000000000000000000000000000000000815260040161068b90612d2f565b60405180910390fd5b61069e8383611235565b505050565b6106b46106ae61122d565b826112ee565b6106f3576040517f08c379a00000000000000000000000000000000000000000000000000000000081526004016106ea90612e4f565b60405180910390fd5b6106fe8383836113cc565b505050565b6060600061073761071384611633565b6040516020016107239190612b20565b6040516020818303038152906040526117e0565b90506009805490508161074a91906131af565b905060098181548110610786577f4e487b7100000000000000000000000000000000000000000000000000000000600052603260045260246000fd5b90600052602060002001805461079b90613103565b80601f01602080910402602001604051908101604052809291908181526020018280546107c790613103565b80156108145780601f106107e957610100808354040283529160200191610814565b820191906000526020600020905b8154815290600101906020018083116107f757829003601f168201915b5050505050915050919050565b600061082d6007611813565b9050600061083a82610703565b9050600061084783610c3a565b9050600061085484610dba565b9050600083838360405160200161086d93929190612a37565b60405160208183030381529060405290506000600882604051602001610894929190612a68565b604051602081830303815290604052905060006108d9836108b484611821565b6040516020016108c5929190612adb565b604051602081830303815290604052611821565b90506000816040516020016108ee9190612b42565b604051602081830303815290604052905061093d6040518060400160405280601581526020017f0a2d2d2d2d2d2d2d2d2d2d2d2d2d2d2d2d2d2d2d2d00000000000000000000008152506110be565b610946816110be565b6109846040518060400160405280601581526020017f2d2d2d2d2d2d2d2d2d2d2d2d2d2d2d2d2d2d2d2d0a00000000000000000000008152506110be565b61098e33896119df565b61099888826119fd565b6109a26007611a71565b6109c5604051806060016040528060258152602001613942602591398933611a87565b7f94e646c6fe5da8a3e76d5f1fc3055d21ee3df289dced4f9b4f872488a056226233896040516109f6929190612bcb565b60405180910390a15050505050505050565b610a2383838360405180602001604052806000815250610d58565b505050565b6000806002600084815260200190815260200160002060009054906101000a900473ffffffffffffffffffffffffffffffffffffffff169050600073ffffffffffffffffffffffffffffffffffffffff168173ffffffffffffffffffffffffffffffffffffffff161415610ad1576040517f08c379a0000000000000000000000000000000000000000000000000000000008152600401610ac890612d6f565b60405180910390fd5b80915050919050565b60008073ffffffffffffffffffffffffffffffffffffffff168273ffffffffffffffffffffffffffffffffffffffff161415610b4b576040517f08c379a0000000000000000000000000000000000000000000000000000000008152600401610b4290612d4f565b60405180910390fd5b600360008373ffffffffffffffffffffffffffffffffffffffff1673ffffffffffffffffffffffffffffffffffffffff168152602001908152602001600020549050919050565b606060018054610ba190613103565b80601f0160208091040260200160405190810160405280929190818152602001828054610bcd90613103565b8015610c1a5780601f10610bef57610100808354040283529160200191610c1a565b820191906000526020600020905b815481529060010190602001808311610bfd57829003601f168201915b5050505050905090565b610c36610c2f61122d565b8383611b26565b5050565b60606000610c6e610c4a84611633565b604051602001610c5a9190612ab9565b6040516020818303038152906040526117e0565b9050600a8054905081610c8191906131af565b9050600a8181548110610cbd577f4e487b7100000000000000000000000000000000000000000000000000000000600052603260045260246000fd5b906000526020600020018054610cd290613103565b80601f0160208091040260200160405190810160405280929190818152602001828054610cfe90613103565b8015610d4b5780601f10610d2057610100808354040283529160200191610d4b565b820191906000526020600020905b815481529060010190602001808311610d2e57829003601f168201915b5050505050915050919050565b610d69610d6361122d565b836112ee565b610da8576040517f08c379a0000000000000000000000000000000000000000000000000000000008152600401610d9f90612e4f565b60405180910390fd5b610db484848484611c93565b50505050565b60606000610dee610dca84611633565b604051602001610dda9190612a97565b6040516020818303038152906040526117e0565b9050600b8054905081610e0191906131af565b9050600b8181548110610e3d577f4e487b7100000000000000000000000000000000000000000000000000000000600052603260045260246000fd5b906000526020600020018054610e5290613103565b80601f0160208091040260200160405190810160405280929190818152602001828054610e7e90613103565b8015610ecb5780601f10610ea057610100808354040283529160200191610ecb565b820191906000526020600020905b815481529060010190602001808311610eae57829003601f168201915b5050505050915050919050565b6060610ee3826111c1565b610f22576040517f08c379a0000000000000000000000000000000000000000000000000000000008152600401610f1990612dcf565b60405180910390fd5b6000600660008481526020019081526020016000208054610f4290613103565b80601f0160208091040260200160405190810160405280929190818152602001828054610f6e90613103565b8015610fbb5780601f10610f9057610100808354040283529160200191610fbb565b820191906000526020600020905b815481529060010190602001808311610f9e57829003601f168201915b505050505090506000610fcc611cef565b9050600081511415610fe2578192505050611025565b600082511115611017578082604051602001610fff929190612a13565b60405160208183030381529060405292505050611025565b61102084611d06565b925050505b919050565b6000600560008473ffffffffffffffffffffffffffffffffffffffff1673ffffffffffffffffffffffffffffffffffffffff16815260200190815260200160002060008373ffffffffffffffffffffffffffffffffffffffff1673ffffffffffffffffffffffffffffffffffffffff16815260200190815260200160002060009054906101000a900460ff16905092915050565b611154816040516024016110d29190612c0f565b6040516020818303038152906040527f41304fac000000000000000000000000000000000000000000000000000000007bffffffffffffffffffffffffffffffffffffffffffffffffffffffff19166020820180517bffffffffffffffffffffffffffffffffffffffffffffffffffffffff8381831617835250505050611dad565b50565b60007f01ffc9a7000000000000000000000000000000000000000000000000000000007bffffffffffffffffffffffffffffffffffffffffffffffffffffffff1916827bffffffffffffffffffffffffffffffffffffffffffffffffffffffff1916149050919050565b60008073ffffffffffffffffffffffffffffffffffffffff166002600084815260200190815260200160002060009054906101000a900473ffffffffffffffffffffffffffffffffffffffff1673ffffffffffffffffffffffffffffffffffffffff1614159050919050565b600033905090565b816004600083815260200190815260200160002060006101000a81548173ffffffffffffffffffffffffffffffffffffffff021916908373ffffffffffffffffffffffffffffffffffffffff160217905550808273ffffffffffffffffffffffffffffffffffffffff166112a883610a28565b73ffffffffffffffffffffffffffffffffffffffff167f8c5be1e5ebec7d5bd14f71427d1e84f3dd0314c0f7b2291e5b200ac8c7c3b92560405160405180910390a45050565b60006112f9826111c1565b611338576040517f08c379a000000000000000000000000000000000000000000000000000000000815260040161132f90612d0f565b60405180910390fd5b600061134383610a28565b90508073ffffffffffffffffffffffffffffffffffffffff168473ffffffffffffffffffffffffffffffffffffffff1614806113855750611384818561102a565b5b806113c357508373ffffffffffffffffffffffffffffffffffffffff166113ab84610506565b73ffffffffffffffffffffffffffffffffffffffff16145b91505092915050565b8273ffffffffffffffffffffffffffffffffffffffff166113ec82610a28565b73ffffffffffffffffffffffffffffffffffffffff1614611442576040517f08c379a000000000000000000000000000000000000000000000000000000000815260040161143990612c8f565b60405180910390fd5b600073ffffffffffffffffffffffffffffffffffffffff168273ffffffffffffffffffffffffffffffffffffffff1614156114b2576040517f08c379a00000000000000000000000000000000000000000000000000000000081526004016114a990612ccf565b60405180910390fd5b6114bd838383611dd6565b6114c8600082611235565b6001600360008573ffffffffffffffffffffffffffffffffffffffff1673ffffffffffffffffffffffffffffffffffffffff16815260200190815260200160002060008282546115189190613019565b925050819055506001600360008473ffffffffffffffffffffffffffffffffffffffff1673ffffffffffffffffffffffffffffffffffffffff168152602001908152602001600020600082825461156f9190612f38565b92505081905550816002600083815260200190815260200160002060006101000a81548173ffffffffffffffffffffffffffffffffffffffff021916908373ffffffffffffffffffffffffffffffffffffffff160217905550808273ffffffffffffffffffffffffffffffffffffffff168473ffffffffffffffffffffffffffffffffffffffff167fddf252ad1be2c89b69c2b068fc378daa952ba7f163c4a11628f55a4df523b3ef60405160405180910390a461162e838383611ddb565b505050565b6060600082141561167b576040518060400160405280600181526020017f300000000000000000000000000000000000000000000000000000000000000081525090506117db565b600082905060005b600082146116ad57808061169690613166565b915050600a826116a69190612f8e565b9150611683565b60008167ffffffffffffffff8111156116ef577f4e487b7100000000000000000000000000000000000000000000000000000000600052604160045260246000fd5b6040519080825280601f01601f1916602001820160405280156117215781602001600182028036833780820191505090505b5090505b600085146117d45760018261173a9190613019565b9150600a8561174991906131af565b60306117559190612f38565b60f81b818381518110611791577f4e487b7100000000000000000000000000000000000000000000000000000000600052603260045260246000fd5b60200101907effffffffffffffffffffffffffffffffffffffffffffffffffffffffffffff1916908160001a905350600a856117cd9190612f8e565b9450611725565b8093505050505b919050565b6000816040516020016117f391906129fc565b6040516020818303038152906040528051906020012060001c9050919050565b600081600001549050919050565b6060600082519050600081141561184a57604051806020016040528060008152509150506119da565b6000600360028361185b9190612f38565b6118659190612f8e565b60046118719190612fbf565b905060006020826118829190612f38565b67ffffffffffffffff8111156118c1577f4e487b7100000000000000000000000000000000000000000000000000000000600052604160045260246000fd5b6040519080825280601f01601f1916602001820160405280156118f35781602001600182028036833780820191505090505b5090506000604051806060016040528060408152602001613967604091399050600181016020830160005b868110156119975760038101905062ffffff818a015116603f8160121c168401518060081b905060ff603f83600c1c1686015116810190508060081b905060ff603f8360061c1686015116810190508060081b905060ff603f831686015116810190508060e01b9050808452600484019350505061191e565b5060038606600181146119b157600281146119c1576119cc565b613d3d60f01b60028303526119cc565b603d60f81b60018303525b508484525050819450505050505b919050565b6119f9828260405180602001604052806000815250611de0565b5050565b611a06826111c1565b611a45576040517f08c379a0000000000000000000000000000000000000000000000000000000008152600401611a3c90612d8f565b60405180910390fd5b80600660008481526020019081526020016000209080519060200190611a6c9291906121cf565b505050565b6001816000016000828254019250508190555050565b611b21838383604051602401611a9f93929190612c31565b6040516020818303038152906040527fe3849f79000000000000000000000000000000000000000000000000000000007bffffffffffffffffffffffffffffffffffffffffffffffffffffffff19166020820180517bffffffffffffffffffffffffffffffffffffffffffffffffffffffff8381831617835250505050611dad565b505050565b8173ffffffffffffffffffffffffffffffffffffffff168373ffffffffffffffffffffffffffffffffffffffff161415611b95576040517f08c379a0000000000000000000000000000000000000000000000000000000008152600401611b8c90612cef565b60405180910390fd5b80600560008573ffffffffffffffffffffffffffffffffffffffff1673ffffffffffffffffffffffffffffffffffffffff16815260200190815260200160002060008473ffffffffffffffffffffffffffffffffffffffff1673ffffffffffffffffffffffffffffffffffffffff16815260200190815260200160002060006101000a81548160ff0219169083151502179055508173ffffffffffffffffffffffffffffffffffffffff168373ffffffffffffffffffffffffffffffffffffffff167f17307eab39ab6107e8899845ad3d59bd9653f200f220920489ca2b5937696c3183604051611c869190612bf4565b60405180910390a3505050565b611c9e8484846113cc565b611caa84848484611e3b565b611ce9576040517f08c379a0000000000000000000000000000000000000000000000000000000008152600401611ce090612c6f565b60405180910390fd5b50505050565b606060405180602001604052806000815250905090565b6060611d11826111c1565b611d50576040517f08c379a0000000000000000000000000000000000000000000000000000000008152600401611d4790612e0f565b60405180910390fd5b6000611d5a611cef565b90506000815111611d7a5760405180602001604052806000815250611da5565b80611d8484611633565b604051602001611d95929190612a13565b6040516020818303038152906040525b915050919050565b60008151905060006a636f6e736f6c652e6c6f679050602083016000808483855afa5050505050565b505050565b505050565b611dea8383611fd2565b611df76000848484611e3b565b611e36576040517f08c379a0000000000000000000000000000000000000000000000000000000008152600401611e2d90612c6f565b60405180910390fd5b505050565b6000611e5c8473ffffffffffffffffffffffffffffffffffffffff166121ac565b15611fc5578373ffffffffffffffffffffffffffffffffffffffff1663150b7a02611e8561122d565b8786866040518563ffffffff1660e01b8152600401611ea79493929190612b7f565b602060405180830381600087803b158015611ec157600080fd5b505af1925050508015611ef257506040513d601f19601f82011682018060405250810190611eef9190612513565b60015b611f75573d8060008114611f22576040519150601f19603f3d011682016040523d82523d6000602084013e611f27565b606091505b50600081511415611f6d576040517f08c379a0000000000000000000000000000000000000000000000000000000008152600401611f6490612c6f565b60405180910390fd5b805181602001fd5b63150b7a0260e01b7bffffffffffffffffffffffffffffffffffffffffffffffffffffffff1916817bffffffffffffffffffffffffffffffffffffffffffffffffffffffff191614915050611fca565b600190505b949350505050565b600073ffffffffffffffffffffffffffffffffffffffff168273ffffffffffffffffffffffffffffffffffffffff161415612042576040517f08c379a000000000000000000000000000000000000000000000000000000000815260040161203990612daf565b60405180910390fd5b61204b816111c1565b1561208b576040517f08c379a000000000000000000000000000000000000000000000000000000000815260040161208290612caf565b60405180910390fd5b61209760008383611dd6565b6001600360008473ffffffffffffffffffffffffffffffffffffffff1673ffffffffffffffffffffffffffffffffffffffff16815260200190815260200160002060008282546120e79190612f38565b92505081905550816002600083815260200190815260200160002060006101000a81548173ffffffffffffffffffffffffffffffffffffffff021916908373ffffffffffffffffffffffffffffffffffffffff160217905550808273ffffffffffffffffffffffffffffffffffffffff16600073ffffffffffffffffffffffffffffffffffffffff167fddf252ad1be2c89b69c2b068fc378daa952ba7f163c4a11628f55a4df523b3ef60405160405180910390a46121a860008383611ddb565b5050565b6000808273ffffffffffffffffffffffffffffffffffffffff163b119050919050565b8280546121db90613103565b90600052602060002090601f0160209004810192826121fd5760008555612244565b82601f1061221657805160ff1916838001178555612244565b82800160010185558215612244579182015b82811115612243578251825591602001919060010190612228565b5b5090506122519190612255565b5090565b5b8082111561226e576000816000905550600101612256565b5090565b600061228561228084612eaf565b612e8a565b90508281526020810184848401111561229d57600080fd5b6122a88482856130c1565b509392505050565b6000813590506122bf816138e5565b92915050565b6000813590506122d4816138fc565b92915050565b6000813590506122e981613913565b92915050565b6000815190506122fe81613913565b92915050565b600082601f83011261231557600080fd5b8135612325848260208601612272565b91505092915050565b60008135905061233d8161392a565b92915050565b60006020828403121561235557600080fd5b6000612363848285016122b0565b91505092915050565b6000806040838503121561237f57600080fd5b600061238d858286016122b0565b925050602061239e858286016122b0565b9150509250929050565b6000806000606084860312156123bd57600080fd5b60006123cb868287016122b0565b93505060206123dc868287016122b0565b92505060406123ed8682870161232e565b9150509250925092565b6000806000806080858703121561240d57600080fd5b600061241b878288016122b0565b945050602061242c878288016122b0565b935050604061243d8782880161232e565b925050606085013567ffffffffffffffff81111561245a57600080fd5b61246687828801612304565b91505092959194509250565b6000806040838503121561248557600080fd5b6000612493858286016122b0565b92505060206124a4858286016122c5565b9150509250929050565b600080604083850312156124c157600080fd5b60006124cf858286016122b0565b92505060206124e08582860161232e565b9150509250929050565b6000602082840312156124fc57600080fd5b600061250a848285016122da565b91505092915050565b60006020828403121561252557600080fd5b6000612533848285016122ef565b91505092915050565b60006020828403121561254e57600080fd5b600061255c8482850161232e565b91505092915050565b61256e8161304d565b82525050565b61257d8161305f565b82525050565b600061258e82612ef5565b6125988185612f0b565b93506125a88185602086016130d0565b6125b18161329c565b840191505092915050565b60006125c782612f00565b6125d18185612f1c565b93506125e18185602086016130d0565b6125ea8161329c565b840191505092915050565b600061260082612f00565b61260a8185612f2d565b935061261a8185602086016130d0565b80840191505092915050565b6000815461263381613103565b61263d8186612f2d565b9450600182166000811461265857600181146126695761269c565b60ff1983168652818601935061269c565b61267285612ee0565b60005b8381101561269457815481890152600182019150602081019050612675565b838801955050505b50505092915050565b60006126b2603283612f1c565b91506126bd826132ad565b604082019050919050565b60006126d5602583612f1c565b91506126e0826132fc565b604082019050919050565b60006126f8601c83612f1c565b91506127038261334b565b602082019050919050565b600061271b600a83612f2d565b915061272682613374565b600a82019050919050565b600061273e602483612f1c565b91506127498261339d565b604082019050919050565b6000612761601983612f1c565b915061276c826133ec565b602082019050919050565b6000612784606383612f2d565b915061278f82613415565b606382019050919050565b60006127a7600b83612f2d565b91506127b2826134b0565b600b82019050919050565b60006127ca602c83612f1c565b91506127d5826134d9565b604082019050919050565b60006127ed600d83612f2d565b91506127f882613528565b600d82019050919050565b6000612810603883612f1c565b915061281b82613551565b604082019050919050565b6000612833602a83612f1c565b915061283e826135a0565b604082019050919050565b6000612856602983612f1c565b9150612861826135ef565b604082019050919050565b6000612879602e83612f1c565b91506128848261363e565b604082019050919050565b600061289c600283612f2d565b91506128a78261368d565b600282019050919050565b60006128bf602083612f1c565b91506128ca826136b6565b602082019050919050565b60006128e2603183612f1c565b91506128ed826136df565b604082019050919050565b6000612905602c83612f1c565b91506129108261372e565b604082019050919050565b6000612928602f83612f1c565b91506129338261377d565b604082019050919050565b600061294b600a83612f2d565b9150612956826137cc565b600a82019050919050565b600061296e602183612f1c565b9150612979826137f5565b604082019050919050565b6000612991600a83612f2d565b915061299c82613844565b600a82019050919050565b60006129b4601d83612f2d565b91506129bf8261386d565b601d82019050919050565b60006129d7603183612f1c565b91506129e282613896565b604082019050919050565b6129f6816130b7565b82525050565b6000612a0882846125f5565b915081905092915050565b6000612a1f82856125f5565b9150612a2b82846125f5565b91508190509392505050565b6000612a4382866125f5565b9150612a4f82856125f5565b9150612a5b82846125f5565b9150819050949350505050565b6000612a748285612626565b9150612a8082846125f5565b9150612a8b826127e0565b91508190509392505050565b6000612aa28261270e565b9150612aae82846125f5565b915081905092915050565b6000612ac48261279a565b9150612ad082846125f5565b915081905092915050565b6000612ae68261293e565b9150612af282856125f5565b9150612afd82612777565b9150612b0982846125f5565b9150612b148261288f565b91508190509392505050565b6000612b2b82612984565b9150612b3782846125f5565b915081905092915050565b6000612b4d826129a7565b9150612b5982846125f5565b915081905092915050565b6000602082019050612b796000830184612565565b92915050565b6000608082019050612b946000830187612565565b612ba16020830186612565565b612bae60408301856129ed565b8181036060830152612bc08184612583565b905095945050505050565b6000604082019050612be06000830185612565565b612bed60208301846129ed565b9392505050565b6000602082019050612c096000830184612574565b92915050565b60006020820190508181036000830152612c2981846125bc565b905092915050565b60006060820190508181036000830152612c4b81866125bc565b9050612c5a60208301856129ed565b612c676040830184612565565b949350505050565b60006020820190508181036000830152612c88816126a5565b9050919050565b60006020820190508181036000830152612ca8816126c8565b9050919050565b60006020820190508181036000830152612cc8816126eb565b9050919050565b60006020820190508181036000830152612ce881612731565b9050919050565b60006020820190508181036000830152612d0881612754565b9050919050565b60006020820190508181036000830152612d28816127bd565b9050919050565b60006020820190508181036000830152612d4881612803565b9050919050565b60006020820190508181036000830152612d6881612826565b9050919050565b60006020820190508181036000830152612d8881612849565b9050919050565b60006020820190508181036000830152612da88161286c565b9050919050565b60006020820190508181036000830152612dc8816128b2565b9050919050565b60006020820190508181036000830152612de8816128d5565b9050919050565b60006020820190508181036000830152612e08816128f8565b9050919050565b60006020820190508181036000830152612e288161291b565b9050919050565b60006020820190508181036000830152612e4881612961565b9050919050565b60006020820190508181036000830152612e68816129ca565b9050919050565b6000602082019050612e8460008301846129ed565b92915050565b6000612e94612ea5565b9050612ea08282613135565b919050565b6000604051905090565b600067ffffffffffffffff821115612eca57612ec961326d565b5b612ed38261329c565b9050602081019050919050565b60008190508160005260206000209050919050565b600081519050919050565b600081519050919050565b600082825260208201905092915050565b600082825260208201905092915050565b600081905092915050565b6000612f43826130b7565b9150612f4e836130b7565b9250827fffffffffffffffffffffffffffffffffffffffffffffffffffffffffffffffff03821115612f8357612f826131e0565b5b828201905092915050565b6000612f99826130b7565b9150612fa4836130b7565b925082612fb457612fb361320f565b5b828204905092915050565b6000612fca826130b7565b9150612fd5836130b7565b9250817fffffffffffffffffffffffffffffffffffffffffffffffffffffffffffffffff048311821515161561300e5761300d6131e0565b5b828202905092915050565b6000613024826130b7565b915061302f836130b7565b925082821015613042576130416131e0565b5b828203905092915050565b600061305882613097565b9050919050565b60008115159050919050565b60007fffffffff0000000000000000000000000000000000000000000000000000000082169050919050565b600073ffffffffffffffffffffffffffffffffffffffff82169050919050565b6000819050919050565b82818337600083830152505050565b60005b838110156130ee5780820151818401526020810190506130d3565b838111156130fd576000848401525b50505050565b6000600282049050600182168061311b57607f821691505b6020821081141561312f5761312e61323e565b5b50919050565b61313e8261329c565b810181811067ffffffffffffffff8211171561315d5761315c61326d565b5b80604052505050565b6000613171826130b7565b91507fffffffffffffffffffffffffffffffffffffffffffffffffffffffffffffffff8214156131a4576131a36131e0565b5b600182019050919050565b60006131ba826130b7565b91506131c5836130b7565b9250826131d5576131d461320f565b5b828206905092915050565b7f4e487b7100000000000000000000000000000000000000000000000000000000600052601160045260246000fd5b7f4e487b7100000000000000000000000000000000000000000000000000000000600052601260045260246000fd5b7f4e487b7100000000000000000000000000000000000000000000000000000000600052602260045260246000fd5b7f4e487b7100000000000000000000000000000000000000000000000000000000600052604160045260246000fd5b6000601f19601f8301169050919050565b7f4552433732313a207472616e7366657220746f206e6f6e20455243373231526560008201527f63656976657220696d706c656d656e7465720000000000000000000000000000602082015250565b7f4552433732313a207472616e736665722066726f6d20696e636f72726563742060008201527f6f776e6572000000000000000000000000000000000000000000000000000000602082015250565b7f4552433732313a20746f6b656e20616c7265616479206d696e74656400000000600082015250565b7f54484952445f574f524400000000000000000000000000000000000000000000600082015250565b7f4552433732313a207472616e7366657220746f20746865207a65726f2061646460008201527f7265737300000000000000000000000000000000000000000000000000000000602082015250565b7f4552433732313a20617070726f766520746f2063616c6c657200000000000000600082015250565b7f222c20226465736372697074696f6e223a20224120686967686c79206163636c60008201527f61696d656420636f6c6c656374696f6e206f6620737175617265732e222c202260208201527f696d616765223a2022646174613a696d6167652f7376672b786d6c3b6261736560408201527f36342c0000000000000000000000000000000000000000000000000000000000606082015250565b7f5345434f4e445f574f5244000000000000000000000000000000000000000000600082015250565b7f4552433732313a206f70657261746f7220717565727920666f72206e6f6e657860008201527f697374656e7420746f6b656e0000000000000000000000000000000000000000602082015250565b7f3c2f746578743e3c2f7376673e00000000000000000000000000000000000000600082015250565b7f4552433732313a20617070726f76652063616c6c6572206973206e6f74206f7760008201527f6e6572206e6f7220617070726f76656420666f7220616c6c0000000000000000602082015250565b7f4552433732313a2062616c616e636520717565727920666f7220746865207a6560008201527f726f206164647265737300000000000000000000000000000000000000000000602082015250565b7f4552433732313a206f776e657220717565727920666f72206e6f6e657869737460008201527f656e7420746f6b656e0000000000000000000000000000000000000000000000602082015250565b7f45524337323155524953746f726167653a2055524920736574206f66206e6f6e60008201527f6578697374656e7420746f6b656e000000000000000000000000000000000000602082015250565b7f227d000000000000000000000000000000000000000000000000000000000000600082015250565b7f4552433732313a206d696e7420746f20746865207a65726f2061646472657373600082015250565b7f45524337323155524953746f726167653a2055524920717565727920666f722060008201527f6e6f6e6578697374656e7420746f6b656e000000000000000000000000000000602082015250565b7f4552433732313a20617070726f76656420717565727920666f72206e6f6e657860008201527f697374656e7420746f6b656e0000000000000000000000000000000000000000602082015250565b7f4552433732314d657461646174613a2055524920717565727920666f72206e6f60008201527f6e6578697374656e7420746f6b656e0000000000000000000000000000000000602082015250565b7f7b226e616d65223a202200000000000000000000000000000000000000000000600082015250565b7f4552433732313a20617070726f76616c20746f2063757272656e74206f776e6560008201527f7200000000000000000000000000000000000000000000000000000000000000602082015250565b7f46495253545f574f524400000000000000000000000000000000000000000000600082015250565b7f646174613a6170706c69636174696f6e2f6a736f6e3b6261736536342c000000600082015250565b7f4552433732313a207472616e736665722063616c6c6572206973206e6f74206f60008201527f776e6572206e6f7220617070726f766564000000000000000000000000000000602082015250565b6138ee8161304d565b81146138f957600080fd5b50565b6139058161305f565b811461391057600080fd5b50565b61391c8161306b565b811461392757600080fd5b50565b613933816130b7565b811461393e57600080fd5b5056fe416e204e465420772f20494420257320686173206265656e206d696e74656420746f2025734142434445464748494a4b4c4d4e4f505152535455565758595a6162636465666768696a6b6c6d6e6f707172737475767778797a303132333435363738392b2fa2646970667358221220bed842db3fd3ef91b889cfc63ceac30b705ed769ed9fa15fb9f30080000f801b64736f6c634300080100333c73766720786d6c6e733d27687474703a2f2f7777772e77332e6f72672f323030302f73766727207072657365727665417370656374526174696f3d27784d696e594d696e206d656574272076696577426f783d273020302033353020333530273e3c7374796c653e2e62617365207b2066696c6c3a2077686974653b20666f6e742d66616d696c793a2073657269663b20666f6e742d73697a653a20323470783b207d3c2f7374796c653e3c726563742077696474683d273130302527206865696768743d2731303025272066696c6c3d27626c61636b27202f3e3c7465787420783d273530252720793d273530252720636c6173733d27626173652720646f6d696e616e742d626173656c696e653d276d6964646c652720746578742d616e63686f723d276d6964646c65273e5468697320697320536972616b204e465420636f6e74726163742e20576f616821",
  "linkReferences": {},
  "deployedLinkReferences": {}
}